:020000040800F2
:1000000000000320ED7B0308C5E20208E1E20208DC
:10001000FDE2020819E3020835E3020800000000CF
:1000200000000000000000000000000071980008BF
:1000300051E3020800000000ED9A00086DE3020899
:100040003D7C03083D7C03083D7C03083D7C0308A0
:100050003D7C03083D7C0308B91100083D7C030882
:100060003D7C0308E91100083D7C03083D7C030842
:100070003D7C03083D7C03083D7C03083D7C030870
:100080003D7C03083D7C03083D7C03083D7C030860
:100090003D7C03083D7C03083D7C03083D7C030850
:1000A0003D7C03083D7C03083D7C03083D7C030840
:1000B0003D7C03083D7C03083D7C03083D7C030830
:1000C0003D7C03083D7C03083D7C03083D7C030820
:1000D0003D7C03083D7C03083D7C03083D7C030810
:1000E000191200083D7C03083D7C03083D7C030891
:1000F0003D7C03083D7C03083D7C03083D7C0308F0
:100100003D7C03083D7C03083D7C03083D7C0308DF
:100110003D7C03083D7C03083D7C03083D7C0308CF
:100120003D7C03083D7C03083D7C03083D7C0308BF
:100130003D7C030881E302083D7C03083D7C030805
:100140003D7C03083D7C03083D7C03083D7C03089F
:100150003D7C03083D7C03083D7C03083D7C03088F
:100160003D7C03083D7C03083D7C03083D7C03087F
:100170003D7C03083D7C03083D7C03080000000033
:100180003D7C03083D7C03083D7C03083D7C03085F
:100190003D7C03083D7C03083D7C03083D7C03084F
:0C01A0003D7C03083D7C03083D7C030807
:1001C0000348044B834202D0034B03B118477047E6
:1001D000F4090020F4090020000000000548064949
:1001E0000B1AD90F01EBA301491002D0034B03B145
:1001F00018477047F4090020F409002000000000AF
:1002000010B5064C237843B9FFF7DAFF044B13B15E
:100210000448AFF300800123237010BDF4090020CF
:1002200000000000547C030808B5044B1BB10449CE
:100230000448AFF30080BDE80840CFE700000000AD
:10024000F8090020547C0308A3F5803A704700BFEA
:10025000154B002B08BF114B9D46FFF7F5FF002102
:100260008B460F461148124A121A2EF04DFA0C4BCB
:10027000002B00D098470B4B002B00D09847002054
:10028000002104000D000B482EF042F92EF07EF9FB
:100290002000290000F010F82EF04EF900000800B0
:1002A000000000000000000000000000F409002031
:1002B00014EA002059E5020880B500AF20F0B2FA38
:1002C00009F0BAFB2DF01AFF2DF0EAFB2DF0B4FC7B
:1002D00009F0E2FB01F0AAFE02F0ACFB07F074F9B2
:1002E000FEE7000080B58AB000AF78600023FB61B4
:1002F00007F0CEF9654B1B68002B01D100F053F9D4
:10030000634B1A687B681340002B40F0A7807B6822
:10031000002B2DD008227B6813447A689A4227D29A
:1003200008227B6813447B607B6803F00703002B83
:1003300021D07B6823F0070308337A689A4214D2ED
:100340007B6823F0070308337B607B6803F00703B7
:10035000002B10D04FF0500383F31188BFF36F8F41
:10036000BFF34F8F7B6100BFFEE700237B6002E09D
:1003700000237B6000E000BF7B68002B6ED0454B04
:100380001B687A689A4269D8434B3B62424B1B68B0
:100390007B6204E07B6A3B627B6A1B687B627B6AF0
:1003A0005B687A689A4203D97B6A1B68002BF1D19B
:1003B000364B1B687A6A9A4250D03B6A1B68082207
:1003C0001344FB617B6A1A683B6A1A607B6A5A684D
:1003D0007B68D21A08235B009A421FD97A6A7B682D
:1003E0001344BB61BB6903F00703002B0AD04FF035
:1003F000500383F31188BFF36F8FBFF34F8F3B61BF
:1004000000BFFEE77B6A5A687B68D21ABB695A60F4
:100410007B6A7A685A60B86900F028F91D4B1A683F
:100420007B6A5B68D31A1B4A13601A4B1A681B4B12
:100430001B689A4203D2174B1B68184A13607B6AE9
:100440005A68134B1B681A437B6A5A607B6A002206
:100450001A60134B1B680133114A136007F026F929
:10046000FB6903F00703002B0AD04FF0500383F31E
:100470001188BFF36F8FBFF34F8FFB6000BFFEE7A4
:10048000FB6918462837BD4680BD00BF24E6002022
:1004900038E6002028E600201CE600202CE600209C
:1004A00030E6002080B586B000AF78607B687B6165
:1004B0007B68002B4DD008235B427A6913447B6133
:1004C0007B693B613B695A68244B1B681340002BD6
:1004D0000AD14FF0500383F31188BFF36F8FBFF33E
:1004E0004F8FFB6000BFFEE73B691B68002B0AD003
:1004F0004FF0500383F31188BFF36F8FBFF34F8F1B
:10050000BB6000BFFEE73B695A68144B1B68134091
:10051000002B1ED03B691B68002B1AD13B695A681F
:100520000E4B1B68DB431A403B695A6007F0B0F87A
:100530003B695A680A4B1B681344094A13603869BF
:1005400000F094F8074B1B680133064A136007F06C
:10055000ADF800BF1837BD4680BD00BF38E60020AB
:1005600028E6002034E6002080B400AF034B1B686F
:100570001846BD465DF8047B704700BF28E60020A2
:1005800080B400AF034B1B681846BD465DF8047B82
:10059000704700BF2CE6002080B400AF00BFBD460E
:1005A0005DF8047B704780B485B000AF4FF45C43C6
:1005B000BB60284BFB60FB6803F00703002B0CD0EB
:1005C000FB680733FB60FB6823F00703FB60BA6836
:1005D000FB68D31A1F4A1344BB60FB687B601E4A4A
:1005E0007B6813601C4B00225A607B68BA68134416
:1005F000FB600822FB689B1AFB60FB6823F0070383
:10060000FB60FB68154A1360144B1B6800225A609C
:10061000124B1B6800221A607B683B603B68FA68DB
:10062000D21A3B685A600D4B1A683B681A603B68E7
:100630005B680B4A13603B685B680A4A13600A4BAD
:100640004FF000421A6000BF1437BD465DF8047BCE
:10065000704700BF1C0A00201CE6002024E6002092
:100660002CE6002028E6002038E6002080B485B083
:1006700000AF7860284BFB6002E0FB681B68FB6002
:10068000FB681B687A689A42F7D8FB68BB60FB6816
:100690005B68BA6813447A689A4208D1FB685A6862
:1006A0007B685B681A44FB685A60FB687B607B6808
:1006B000BB607B685B68BA681A44FB681B689A4237
:1006C00018D1FB681A68154B1B689A420DD07B68DD
:1006D0005A68FB681B685B681A447B685A60FB6851
:1006E0001B681A687B681A6008E00C4B1A687B6804
:1006F0001A6003E0FB681A687B681A60FA687B6816
:100700009A4202D0FB687A681A6000BF1437BD466F
:100710005DF8047B704700BF1CE6002024E6002043
:1007200080B586B000AF786000233B610023FB609A
:100730004FF0FF33BB6006F0ABFF224B1B687B61C1
:100740007B69002B1AD03B6901333B617B695B6895
:10075000FA689A4202D27B695B68FB607B695B68DE
:10076000BA689A4202D97B695B68BB607B691B6887
:100770007B61154B1B687A699A42E4D106F096FFBB
:100780007B68FA685A607B68BA689A607B683A69E5
:10079000DA6009F051F90D4B1A687B681A600C4B4E
:1007A0001A687B685A610B4B1A687B689A610A4B1E
:1007B0001A687B681A6109F06FF900BF1837BD46E7
:1007C00080BD00BF1CE6002024E6002028E60020B3
:1007D00030E6002034E600202CE6002080B485B00E
:1007E00000AF0023FB60984B1B6B974A43F040031C
:1007F0001363954B1B6B03F04003FB60FB68002306
:10080000BB60914B1B6B904A43F0100313638E4BFC
:100810001B6B03F01003BB60BB6800237B608A4B3B
:100820001B6B894A43F020031363874B1B6B03F058
:1008300020037B607B68854B1B68844A23F44063FC
:100840001360824B1B68814A43F4806313607F4BC3
:100850009B687E4A23F4406393607C4B9B687B4A91
:1008600043F400639360794B5B68784A23F020037C
:100870005360764BDB68754A23F44063D360734B57
:10088000DB68724A43F48063D360704B1B686F4A25
:1008900023F4405313606D4B1B686C4A43F4805340
:1008A00013606A4B9B68694A23F440539360674B1B
:1008B0009B68664A43F400539360644B5B68634AE9
:1008C00023F040035360614BDB68604A23F44053DC
:1008D000D3605E4BDB685D4A43F48053D3605B4B6F
:1008E0001B685A4A23F440331360584B1B68574A1D
:1008F00043F480331360554B9B68544A23F44033D0
:100900009360524B9B68514A43F4003393604F4BC2
:100910005B684E4A23F4807353604C4BDB684B4A50
:1009200023F44033D360494BDB68484A43F48033B7
:10093000D360464B1B68454A23F440131360434B76
:100940001B68424A43F480131360404B9B683F4A44
:1009500023F4401393603D4B9B683C4A43F40013DF
:1009600093603A4B5B68394A23F480635360374B9A
:10097000DB68364A23F44013D360344BDB68334AD8
:1009800043F48013D360314B1B68304A23F4400397
:1009900013602E4B1B682D4A43F4800313602B4BCE
:1009A0009B682A4A23F440039360284B9B68274A9C
:1009B00043F400039360254B5B68244A23F40063EF
:1009C0005360224BDB68214A23F44003D3601F4B62
:1009D000DB681E4A43F48003D3601C4B1B681B4A30
:1009E00023F040631360194B1B68184A43F080637F
:1009F0001360164B9B68154A23F040639360134BBA
:100A00009B68124A43F000639360104B5B680F4A87
:100A100023F4005353600D4BDB680C4A23F0406312
:100A2000D3600A4BDB68094A43F08063D360074B0D
:100A30001B68064A23F040431360044B1B68034ABB
:100A400043F08043136003E0003802400018024086
:100A5000504B9B684F4A23F0404393604D4B9B683B
:100A60004C4A43F0004393604A4B5B68494A23F485
:100A700000435360474BDB68464A23F04043D36052
:100A8000444BDB68434A43F08043D360424B1B68CE
:100A9000414A23F0030313603F4B1B683E4A43F077
:100AA000010313603C4B9B683B4A23F003039360B4
:100AB000394B9B68384A43F002039360364B5B68BE
:100AC000354A23F001035360334BDB68324A23F08D
:100AD0000303D360304BDB682F4A43F00103D3603C
:100AE0002D4B1B682C4A23F4405313602A4B1B6880
:100AF000294A43F480531360274B9B68264A23F40A
:100B000040539360244B9B68234A43F40053936003
:100B1000214B5B68204A23F0400353601E4BDB6887
:100B20001D4A23F44053D3601B4BDB681A4A43F43D
:100B30008053D360194B1B68184A23F44003136099
:100B4000164B1B68154A43F480031360134B9B68D4
:100B5000124A23F440039360104B9B680F4A43F4FE
:100B6000000393600D4B5B680C4A23F400635360F1
:100B70000A4BDB68094A23F44003D360074BDB6868
:100B8000064A43F48003D36000BF1437BD465DF8C6
:100B9000047B70470018024000100240001402401D
:100BA00080B483B000AF78600B46FB707B68002B8D
:100BB00010D1FB78002B06D0634B5B69624A43F08F
:100BC00040035361B9E0604B5B695F4A23F0400327
:100BD0005361B2E07B68012B10D1FB78002B06D06B
:100BE0005A4B5B69594A43F400435361A5E0574BA4
:100BF0005B69564A23F4004353619EE07B68022BF5
:100C000010D1FB78002B06D0504B5B694F4A43F460
:100C10008063536191E04D4B5B694C4A23F48063E0
:100C200053618AE07B68032B10D1FB78002B06D040
:100C3000464B5B69454A43F4005353617DE0434BA7
:100C40005B69424A23F40053536176E07B68042BCE
:100C500010D1FB78002B06D03C4B5B693B4A43F438
:100C60000063536169E0394B5B69384A23F40063E0
:100C7000536162E07B68052B10D1FB78002B06D016
:100C8000334B5B69324A43F40063536155E0304BA8
:100C90005B692F4A23F4006353614EE07B68062BA7
:100CA00010D1FB78002B06D0274B5B69264A43F016
:100CB0000103536141E0244B5B69234A23F00103A4
:100CC00053613AE07B68072B10D1FB78002B06D0EC
:100CD0001E4B5B691D4A43F4807353612DE01B4B2F
:100CE0005B691A4A23F48073536126E07B68082B02
:100CF00010D1FB78002B06D0144B5B69134A43F0EC
:100D00002003536119E0114B5B69104A23F0200363
:100D1000536112E07B68092B0FD1FB78002B06D0C2
:100D20000A4B5B69094A43F04003536105E0074BF6
:100D30005B69064A23F04003536100BF0C37BD4690
:100D40005DF8047B704700BF0010024000180240AD
:100D50000014024080B584B000AF0346FB8000233E
:100D6000FB600FE0FA88FB6842FA03F3DBB203F0A2
:100D70000103FB72FB7A1946F868FFF711FFFB6865
:100D80000133FB60FB68092BECDD00BF00BF1037AF
:100D9000BD4680BD80B584B000AF03463960FB809E
:100DA0003B68002B0AD1FB885B001AB2FB885B0A08
:100DB0009BB21BB213431BB2FB810CE0FB885B08A8
:100DC0009BB21AB2FB885B021BB203F400731BB226
:100DD00013431BB2FB81FB891846FFF7BBFFFB895E
:100DE00018461037BD4680BD80B483B000AF0346BF
:100DF000FB7197F90730002B0CDBFB7903F01F0226
:100E0000074997F907305B09012000FA02F26033C5
:100E100041F8232000BF0C37BD465DF8047B7047C6
:100E200000E100E080B584B000AF78600023FB6093
:100E30006B4B1B6B6A4A43F004031363684B1B6BD9
:100E400003F00403FB60FB680023BB60644B1B6B77
:100E5000634A43F020031363614B1B6B03F02003D1
:100E6000BB60BB685E4B5B6C5D4A43F4804353647C
:100E70007B68002B38D15B4B1B685A4A23F0030375
:100E80001360584BDB68574A23F00303D360554B7C
:100E9000DB68544A43F00203D360534B9B68524AC9
:100EA00023F00F039360504B9B684F4A43F00203BB
:100EB00093604E4B9B684D4A43F0010393604B4B4C
:100EC000DB684A4A23F00103D360484B1B68474A5A
:100ED00043F00103136000220A21062009F0FFFD00
:100EE000062009F018FE76E07B68022B38D1404BD3
:100EF0001B683F4A23F0C00313603D4BDB683C4A4C
:100F000023F0C003D3603A4BDB68394A43F08003D7
:100F1000D360354B9B68344A23F470439360324B63
:100F20009B68314A43F4A0439360304B9B682F4A3F
:100F300043F0080393602D4BDB682C4A23F0080331
:100F4000D3602A4B1B68294A43F008031360002230
:100F50000A21092009F0C3FD092009F0DCFD3AE06F
:100F60007B68032B37D11F4B1B681E4A23F040635D
:100F700013601C4BDB681B4A23F04063D360194BA2
:100F8000DB68184A43F00063D360174B5B69164A6D
:100F900023F0F0035361144B5B69134A43F02003C1
:100FA0005361124B9B68114A43F4005393600F4BFB
:100FB000DB680E4A23F40053D3600C4B1B680B4ACA
:100FC00043F40053136000220A21282009F087FD12
:100FD000282009F0A0FD00BF1037BD4680BD00BF2E
:100FE000003802400008024000380140003C014047
:100FF0000014024080B584B000AF78601FF0B2FCEE
:10100000F860394A7B6852F82330FA68D31AC8224C
:10101000934265D9354A7B6852F823305A1C3349CC
:101020007B6841F823207B68002B03D102202CF041
:10103000D5FD0CE07B68022B03D104202CF0CEFD03
:1010400005E07B68032B02D101202CF0C7FD274A65
:101050007B6852F82330072B04DD244A7B6800218B
:1010600042F8231020497B68FA6841F823200023C6
:10107000BB607B68002B0CD11D4B1B68002B08D07C
:101080001B4B1B6807F108021146184603F039FA9A
:101090001BE07B68022B0CD1164B1B68002B08D081
:1010A000144B1B6807F108021146184603F029FA91
:1010B0000BE0114B1B68002B07D00F4B1B6807F18F
:1010C00008021146184603F01CFABB68002B07D033
:1010D0000A4B4FF080521A60BFF34F8FBFF36F8FF0
:1010E00000BF1037BD4680BD48E600203CE600202A
:1010F00040E9002044E900203CE9002004ED00E044
:1011000080B483B000AF78607B68002B02D07B682E
:10111000022B04D1054A7B6852F8233000E00023FB
:1011200018460C37BD465DF8047B70473CE600204E
:1011300080B483B000AF78607B68002B02D07B68FE
:10114000022B04D1054A7B68002142F8231000BF1E
:101150000C37BD465DF8047B704700BF3CE60020BD
:1011600080B500AF03220021012002F0A9FE034652
:101170000E4A136003220021012002F0A1FE034663
:101180000B4A136003220021012002F099FE03465E
:10119000084A13600020FFF745FE0220FFF742FED9
:1011A0000320FFF73FFE00BF80BD00BF40E90020E5
:1011B00044E900203CE9002080B500AF0620FFF79D
:1011C00013FE084B5B6903F00103012B08D1054BAB
:1011D0005B69044A43F0010353610020FFF70AFFF3
:1011E00000BF80BD003C014080B500AF0920FFF783
:1011F000FBFD084B5B6903F00803082B08D1054B86
:101200005B69044A43F0080353610220FFF7F2FED2
:1012100000BF80BD003C014080B500AF2820FFF733
:10122000E3FD094B5B6903F40053B3F5005F08D19C
:10123000054B5B69044A43F4005353610320FFF7F5
:10124000D9FE00BF80BD00BF003C014080B485B026
:1012500000AF0023FB60564B1B6B554A43F0100355
:101260001363534B1B6B03F01003FB60FB680023FD
:10127000BB604F4B1B6B4E4A43F0200313634C4B38
:101280001B6B03F02003BB60BB6800237B60484BF3
:101290001B6B474A43F001031363454B1B6B03F081
:1012A00001037B607B68434B1B68424A23F4400385
:1012B0001360404B1B683F4A43F4800313603D4B6F
:1012C0009B683C4A23F4400393603A4B9B68394A3D
:1012D00043F400039360374B5B68364A23F40063A2
:1012E0005360344BDB68334A23F44003D360314B03
:1012F000DB68304A43F48003D3602F4B1B682E4ACF
:1013000023F0407313602C4B1B682B4A43F080730F
:101310001360294B9B68284A23F040739360264B47
:101320009B68254A43F000739360234B5B68224A15
:1013300023F480535360204BDB681F4A23F0407333
:10134000D3601D4BDB681C4A43F08073D3601B4B9A
:101350001B681A4A23F040431360184B1B68174A56
:1013600043F080431360154B9B68144A23F04043BD
:101370009360124B9B68114A43F0004393600F4BFC
:101380005B680E4A23F4004353600C4BDB680B4A46
:1013900023F04043D360094BDB68084A43F08043A5
:1013A000D36000BF1437BD465DF8047B704700BFB3
:1013B00000380240001002400000024000140240C9
:1013C00080B483B000AF0346FB71FB7903F00403E4
:1013D000002B06D01B4B5B691A4A43F40063536130
:1013E00005E0184B5B69174A23F400635361FB79EE
:1013F00003F00203002B06D0134B5B69124A43F43F
:101400008053536105E0104B5B690F4A23F480530E
:101410005361FB7903F00103002B06D00B4B5B6992
:101420000A4A43F40043536105E0084B5B69074AED
:1014300023F40043536100BF0C37BD465DF8047BC5
:10144000704700BF0010024000000240001402403C
:1014500080B582B000AF00237B60394B1B6B384AEC
:1014600043F001031363364B1B6B03F001037B60F6
:101470007B68344B1B68334A43F0C0031360314B25
:101480009B68304A23F0C00393602E4B9B682D4A23
:1014900043F0800393602B4BDB682A4A23F0C003A0
:1014A000D36000233B60264B5B6C254A43F480737A
:1014B0005364234B5B6C03F480733B603B68224BAB
:1014C000224A1A60204B00225A601F4B00229A6069
:1014D0001D4B00221A611C4B00221A761A4B002267
:1014E00083F82020184B00225A62174B0022DA6240
:1014F000154B00229A62144B0022DA60124B012233
:10150000DA61114B002283F830200F4B00225A6120
:101510000D481FF08FFB0E4B03221A600C4B01226B
:101520005A600B4B00229A60094B0022DA6008498E
:10153000054820F0F0F900BF0837BD4680BD00BF68
:10154000003802400000024050E900200020014025
:1015500098E9002080B500AF08481FF0F4FB00BFF9
:101560000A2106481FF0F5FC0346002BF8D103487A
:1015700020F09CF90346184680BD00BF50E90020CA
:1015800080B582B000AFFFF763FF4FF0FF337B60A1
:10159000FFF7E0FF03463B603A687B68D31A002BF5
:1015A000B8BF5B420A2B08DD064B1868394600239A
:1015B000002202F0C3FD3B687B60322005F048FC4E
:1015C000E6E700BF4CE9002080B582B002AF002200
:1015D0000421042002F074FC0346084A136000232F
:1015E00001930223009300234FF4807204490548BD
:1015F00005F030FA00BFBD4680BD00BF4CE90020B9
:10160000787C03088115000880B588B000AF0346D8
:10161000FB71FB79184600F059F9B861BB69012BE1
:1016200040F08180FB7903F01003002B14BF0123ED
:101630000023DBB2FB75FB7903F02003002B14BF02
:1016400001230023DBB2BB75FB7903F04003002BC1
:1016500014BF01230023DBB27B7597F90730DBB29F
:10166000DB09DBB23B75FB7903F00203002B14BFEF
:1016700001230023DBB2FB74FB7903F00403002B8E
:1016800014BF01230023DBB2BB74FB7903F0080312
:10169000002B14BF01230023DBB27B740023FB77F4
:1016A000BA7D7B7D5340DAB23B7D53403B74FA7D7B
:1016B0007B7D5340DAB23B7D5340FB73FA7DBB7DAB
:1016C0005340DAB23B7D5340BB733A7CFB7C9A4279
:1016D00003D0FB7F43F00103FB77FA7BBB7C9A428C
:1016E00003D0FB7F43F00203FB77BA7B7B7C9A42FB
:1016F00003D0FB7F43F00403FB77FB7F002B04D177
:10170000FB7983F00103FB7112E0FB7F072B0FD8FD
:10171000FB7F012202FA03F35AB297F907305340D4
:101720005BB2FB7104E0BB69022B01D1FF2323E014
:1017300097F907301B115BB203F008035AB2FB792B
:101740001B115BB203F004035BB213435AB2FB7983
:101750001B115BB203F002035BB213435AB2FB7975
:1017600003F01003002B14BF01230023DBB25BB294
:1017700013435BB27B737B7B18462037BD4680BD2D
:1017800080B487B000AF0346FB710023FB75FB7983
:1017900003F00103002B14BF01230023DBB27B7590
:1017A000FB7903F00203002B14BF01230023DBB2FB
:1017B0003B75FB7903F00403002B14BF01230023C6
:1017C000DBB2FB74FB7903F00803002B14BF012389
:1017D0000023DBB2BB743A7DFB7C5340DAB2BB7CA6
:1017E00053407B747A7DFB7C5340DAB2BB7C534020
:1017F0003B747A7D3B7D5340DAB2BB7C5340FB7334
:101800007B7C5B005AB23B7C9B005BB213435AB2B9
:10181000FB7BDB005BB213435AB27B7D1B015BB2E7
:1018200013435AB23B7D5B015BB213435AB2FB7C5C
:101830009B015BB213435AB2BB7CDB015BB2134327
:101840005BB2BB730123BB7513E0BA7BBB7D42FA6D
:1018500003F303F00103002B14BF01230023DBB2C9
:101860005AB297F9173053405BB2FB75BB7D013319
:10187000BB75BB7D072BE8D9BA7BFB7D1343BB73DC
:10188000BB7B18461C37BD465DF8047B704790B59E
:1018900085B000AF0346FB71FB7903F00F03DBB2A9
:1018A0001846FFF76DFF03461CB2FB791B09DBB23C
:1018B0001846FFF765FF03461B021BB223431BB20A
:1018C000FB81FB8918461437BD4690BD80B489B0B2
:1018D00000AF0346FB710023FB770023BB77FB7946
:1018E00003F01003002B14BF01230023DBB2FB75B0
:1018F000FB7903F02003002B14BF01230023DBB28C
:10190000BB75FB7903F04003002B14BF01230023B8
:10191000DBB27B7597F90730DBB2DB09DBB23B75D5
:10192000FB7903F00203002B14BF01230023DBB279
:10193000FB74FB7903F00403002B14BF0123002385
:10194000DBB2BB74FB7903F00803002B14BF012347
:101950000023DBB27B74BA7D7B7D5340DAB23B7DE2
:1019600053403B74FA7D7B7D5340DAB23B7D53405C
:10197000FB73FA7DBB7D5340DAB23B7D5340BB73B2
:101980003A7CFB7C9A4203D0FB7F43F00103FB7758
:10199000FA7BBB7C9A4203D0FB7F43F00203FB77C8
:1019A000BA7B7B7C9A4203D0FB7F43F00403FB7736
:1019B0000123BB6113E0FA79BB6942FA03F303F038
:1019C0000103002B14BF01230023DBB25AB297F9A5
:1019D0001E3053405BB2BB77BB690133BB61BB694F
:1019E000072BE8DDBA7FFB7903F001039A4214BFAD
:1019F00001230023DBB2BB60FB7F002B04D1BB685B
:101A0000002B01D100230EE0FB7F002B02D0BB682E
:101A1000002B05D1FB7F002B04D1BB68002B01D02C
:101A2000012300E0022318462437BD465DF8047BFD
:101A3000704790B585B000AF786039600023FB60D7
:101A400022E0FB687A6813441B78FB72FB7A03F090
:101A50000F03DAB2FB685B0019463B685C1810465E
:101A6000FFF78EFE03462370FB7A1B09D9B2FB6891
:101A70005B0001333A68D4180846FFF781FE03463D
:101A80002370FB680133FB60FB680F2BD9DD00BFBF
:101A900000BF1437BD4690BD80B483B000AF0023B3
:101AA0007B60644B1B6B634A43F001031363614B20
:101AB0001B6B03F001037B607B6800233B605D4B85
:101AC0001B6B5C4A43F0080313635A4B1B6B03F018
:101AD00008033B603B68584B1B68574A23F440633C
:101AE0001360554B1B68544A43F480631360524B98
:101AF0009B68514A23F4406393604F4B9B684E4A66
:101B000043F4006393604C4B5B684B4A23F0200323
:101B10005360494BDB68484A23F44063D360464B2B
:101B20001B68454A23F440531360434B1B68424AE9
:101B300043F480531360404B9B683F4A23F4405367
:101B400093603D4B9B683C4A43F4005393603A4B8F
:101B50005B68394A23F040035360374BDB68364AF1
:101B600023F44053D360344B1B68334A23F440437F
:101B70001360314B1B68304A43F4804313602E4B93
:101B80009B682D4A23F4404393602B4B9B682A4A61
:101B900043F400439360284B5B68274A23F080039B
:101BA0005360254BDB68244A23F44043D360234B26
:101BB0001B68224A23F040531360204B1B681F4AC6
:101BC00043F0805313601D4B9B681C4A23F0405325
:101BD00093601A4B9B68194A43F000539360174B6C
:101BE0005B68164A23F480435360144BDB68134A46
:101BF00023F04053D360104B5B690F4A43F020033E
:101C000053610D4B5B690C4A43F0400353610A4B2F
:101C10005B69094A43F080035361084B5B69074ADB
:101C200043F48043536100BF0C37BD465DF8047B2D
:101C3000704700BF0038024000000240000C024024
:101C400080B483B000AF00237B60884B1B6B874A56
:101C500043F010031363854B1B6B03F010037B6091
:101C60007B6800233B60814B1B6B804A43F002037F
:101C700013637E4B1B6B03F002033B603B687C4BA2
:101C80001B687B4A23F440331360794B9B68784A86
:101C900023F440339360764B9B68754A43F40033DA
:101CA0009360734BDB68724A23F44033D360704B0C
:101CB000DB686F4A43F40033D3606D4B1B686C4A9A
:101CC00023F4404313606A4B9B68694A23F4404302
:101CD0009360674B9B68664A43F400439360644B90
:101CE000DB68634A23F44043D360614BDB68604A9E
:101CF00043F40043D3605E4B1B685D4A23F44013FA
:101D000013605B4B9B685A4A23F440139360584B13
:101D10009B68574A43F400139360554BDB68544A61
:101D200023F44013D360524BDB68514A43F4001351
:101D3000D3604F4B1B684E4A23F0407313604C4BEB
:101D40009B684B4A23F040739360494B9B68484A19
:101D500043F000739360464BDB68454A23F04073C1
:101D6000D360434BDB68424A43F00073D360404B7F
:101D70001B683F4A23F0405313603D4B9B683C4A2D
:101D800023F0405393603A4B9B68394A43F0005329
:101D90009360374BDB68364A23F04053D360344BB3
:101DA000DB68334A43F00053D360314B1B68304A41
:101DB00023F0404313602E4B9B682D4A23F0404391
:101DC00093602B4B9B682A4A43F000439360284B57
:101DD000DB68274A23F04043D360254BDB68244A65
:101DE00043F00043D360234B1B68224A23F0406337
:101DF0001360204B9B681F4A23F0406393601D4B88
:101E00009B681C4A43F0006393601A4BDB68194AD5
:101E100023F04063D360174BDB68164A43F000633E
:101E2000D360144B1B68134A23F440031360114B17
:101E30009B68104A23F4400393600E4B9B680D4A45
:101E400043F4000393600B4BDB680A4A23F440031E
:101E5000D360084BDB68074A43F40003D36000BF3C
:101E60000C37BD465DF8047B704700BF0038024068
:101E7000001002400004024080B483B000AF002391
:101E8000FB712B4B1B6903F48073002B03D0FB7990
:101E900043F00103FB71264B1B6903F08003002B09
:101EA00003D0FB7943F00203FB71214B1B6903F460
:101EB0008063002B03D0FB7943F00403FB711C4BC0
:101EC0001B6903F48053002B03D0FB7943F0080314
:101ED000FB71174B1B6903F48043002B03D0FB7984
:101EE00043F01003FB71124B1B6903F40043002BFA
:101EF00003D0FB7943F02003FB710E4B1B6903F405
:101F00000053002B03D0FB7943F04003FB71094BD6
:101F10001B6903F40063002B03D0FB7963F07F039C
:101F2000FB71FB7918460C37BD465DF8047B7047A2
:101F3000001002400004024080B582B000AFFFF7FD
:101F40007FFE00220121052001F0BAFF0346094A65
:101F50001360FFF791FF03463B71064B1868391D6C
:101F600000234FF0FF3202F0E9F8322004F070FF56
:101F7000EFE700BFA8E9002080B582B002AF0023E0
:101F800001930223009300234FF480720349044815
:101F900004F060FD00BFBD4680BD00BF847C030827
:101FA000391F000880B58CB000AF00233B6207F1F9
:101FB000240300221A605A609A60184B1B680021A3
:101FC000184602F033FC0346012B08D0144B1B6863
:101FD0000021184602F02AFC0346012B1AD1114BAE
:101FE0001B68002B0CBF01230023DBB21A460D4BEC
:101FF0001A600C4B1B68002B06D00B4B5B690A4A1E
:1020000023F04003536105E0074B5B69064A43F048
:1020100040035361012004F01BFFCEE740E900209C
:1020200044E9002060E600200000024080B582B054
:1020300002AFFFF795F8FFF72FFDFEF7CFFB00F09B
:1020400085FE01F047FB0023019302230093002348
:102050004FF480620349044804F0FCFC00BFBD4615
:1020600080BD00BF8C7C0308A51F000880B500AFB1
:1020700001F030FB2BF0F6FC00224FF40041134836
:1020800011F06AFA05221249302001F0CDFB052239
:102090000F492A2001F0C8FB0021012001F06AFB52
:1020A0000121022001F066FB2021112001F062FBDA
:1020B0003421052001F05EFB0621062001F05AFBC9
:1020C0000221002001F056FB00BF80BD000C024041
:1020D0000400002080B58CB000AF00233B6207F104
:1020E000240300221A605A609A60354B1B684FF037
:1020F000FF31184602F09AFB0346012BF5D120234D
:1021000087F82030482387F82130312387F82230A0
:10211000562387F82330762387F8243007F12003ED
:1021200005330B22002118462CF0EEFA07F12003AC
:1021300005330422234918462CF04CFA3A4607F19D
:10214000200311461846FFF774FC3B46184601F081
:102150001DFC1D4B1B68002B0CBF01230023DBB2B1
:102160001A46194B1A60184B1B68002B06D0174BE8
:102170005B69164A23F04003536105E0134B5B692A
:10218000124A43F040035361114B1B68002B0CBFF4
:1021900001230023DBB21A460D4B1A600C4B1B685F
:1021A000002B06D0094B5B69084A23F020035361DA
:1021B0009BE7064B5B69054A43F02003536194E7B4
:1021C0003CE90020947C030874E6002000000240F3
:1021D00070E6002080B500AF574B1B684FF0FF3111
:1021E000184602F023FB0346012BF5D1534B1B7815
:1021F000013B0E2B6CD801A252F823F039220008C3
:1022000047220008552200086322000871220008B6
:102210007F2200088D2200089B220008A9220008C6
:10222000D1220008D1220008D1220008D1220008C2
:10223000D1220008B7220008404B02221A70404BFE
:1022400022221A704BE03D4B03221A703C4B222293
:102250001A7044E0394B04221A70394B22221A704A
:102260003DE0364B05221A70354B26221A7036E0B7
:10227000324B06221A70324B27221A702FE02F4B56
:1022800007221A702E4B00221A7028E02B4B0822CE
:102290001A702B4B00221A7021E0284B09221A7069
:1022A000274B00221A701AE0244B0F221A70244B7D
:1022B0000F221A7013E0234B64221A60224B002273
:1022C0001A601E4B01221A701D4B22221A7006E062
:1022D0001A4B01221A701A4B00221A7000BF174BBA
:1022E0001B78072B07D0154B1B78082B03D0134BFB
:1022F0001B78092B04D1114B1B78184600F0D0FC39
:10230000124B1B68002B0CBF01230023DBB21A46C3
:102310000E4B1A600D4B1B68002B06D00C4B5B69F3
:102320000B4A23F04003536156E7094B5B69084AA7
:1023300043F0400353614FE740E9002009000020CB
:102340000A0000200C0000207CE6002074E600203B
:102350000000024080B592B002AFAB4B1B684FF05B
:10236000FF31184602F062FA0346012BF5D1A74B64
:102370001B7887F82C30482387F82D30312387F8D5
:102380002E30562387F82F30762387F8303007F128
:102390002C0305330B22002118462CF0B5F900233D
:1023A0003B603B1D00221A605A60984B1B780F3B24
:1023B000182B00F2D28001A252F823F03125000838
:1023C0005B2500085B2500085B2500085B250008ED
:1023D0005B2500085B2500085B2500085B250008DD
:1023E0005B2500085B2500085B2500085B250008CD
:1023F0005B2500085B2500085B2500085B250008BD
:102400005B2500085B250008212400085B250008E7
:102410005B2500085B250008E92400080125000869
:10242000002387F83F30002387F83E30002387F8E9
:102430003D30774B1B78042B2DD0042B44DC022B32
:1024400002D0032B13D03FE0724B1B7887F83F304C
:10245000714A97F83F301370002387F83E3000230D
:1024600087F83D3097F83F306C4A13602DE0694B98
:102470001B7887F83E306A4A97F83E301370664BF7
:102480001B7887F83F30002387F83D3097F83E30BF
:10249000624A136019E05F4B1B78DBB2632B03D8F1
:1024A0005C4B1B78DBB200E0632387F83D305A4B6E
:1024B0001B7887F83F305A4B1B7887F83E3097F8E7
:1024C0003D30564A136000E000BF97F83F1097F880
:1024D0003E3097F83D203846019200930B46514A12
:1024E0000C212CF055FA38E04F4B1B6838464F4A08
:1024F0000C212CF04DFA4C4B1B68484A13602CE021
:102500004B4B1B68002B01DB202200E02D22484BA7
:102510001B68002BB8BF5B42384600931346454A00
:102520000C212CF035FA424B1B683C4A136014E036
:102530003D4B64221A603E4B00221A60364B00224B
:102540001A70374B00221A70344B00221A60002296
:102550000F210F2000F092F9FFE63B4618462CF0C1
:102560000FFB0246394607F12C03053318462CF0C1
:1025700031F807F10C0207F12C0311461846FFF75A
:1025800058FA07F10C03184601F000FA214B1B78AA
:10259000DBB2184600F082FC274B1B68002B0CBFF7
:1025A00001230023DBB21A46234B1A60224B1B681F
:1025B000002B06D0214B5B69204A23F02003536196
:1025C00005E01E4B5B691D4A43F0200353611C4B21
:1025D0001B68002B0CBF01230023DBB21A46184BEB
:1025E0001A60174B1B68002B06D0144B5B69134A0B
:1025F00023F040035361B0E6104B5B690F4A43F090
:1026000040035361A9E600BF44E900200A0000200E
:102610000900002080E6002081E6002078E6002006
:1026200082E600209C7C03080C000020AC7C0308A0
:102630007CE60020B87C030870E600200000024021
:1026400074E6002080B500AF044B1B789BB218469F
:10265000FEF780FB0A2004F0FBFBF5E709000020F1
:1026600080B582B000AF074B1B68391D4FF0FF32B9
:10267000184601F0FBFF0346012BF4D13A79024BD7
:102680001A70F0E7A8E9002080E6002080B582B04B
:1026900000AF114B1B78062B09D0062B0EDC012B4B
:1026A00009D0052B0AD10D4B1B687B600BE00C4B4E
:1026B0001B687B6007E000237B6004E0094B1B780C
:1026C000DBB27B6000BF084B1B68184600F0E6FBDE
:1026D000012004F0BDFBDCE7090000200C00002015
:1026E0007CE6002080E6002078E6002080B582B0FD
:1026F00000AF0023FB710520FEF762FE0A4B1B783A
:10270000012B01D10523FB71084B1B78FA799A4202
:1027100006D0FB791846FEF753FE044AFB79137086
:102720000A2004F095FBE9E70900002010000020D2
:1027300080B584B000AF4A4B1B683946002218466A
:1027400001F094FF0346012B73D13B68454A82FB9D
:1027500003121A441212DB17D31ABB60424B1B68D8
:10276000BA689A4265D0404B1B68BA68D31A7B603E
:102770003D4B1B68B3F1FF3F03D13B4ABB6813607D
:102780006CE03A4B1B78052B18D17A6813469B00F6
:1027900013449B001A46364B1B681344344A13609B
:1027A000334B1B68C82B02DD314BC8221A60304BFB
:1027B0001B68002B02DA2E4B00221A602B4B1B7871
:1027C000062B1AD17A6813469B0013449B001A46C5
:1027D000284B1B681344274A1360264B1B68642B45
:1027E00002DD244B64221A60224B1B6813F1640F34
:1027F00003DA204B6FF063021A600523FB737B68DA
:10280000002B02DD0323FB7304E07B68002B01DA5D
:102810000623FB73184B1B78FA7B9A4206D0FB7B8E
:102820001846FEF7CDFD144AFB7B13700E4ABB68B9
:1028300013600E4B1B78052B0DD00C4B1B78062B11
:1028400009D00D4B1B78052B05D00520FEF7B8FDF0
:10285000094B05221A70322004F0FAFA6BE700BF28
:102860004CE9002089163CA014000020090000203B
:102870000C0000207CE600201800002080B594B0F9
:1028800002AF03463A60FB710B46BB71FFF7EEFBEC
:102890000023BB6307F13C0300221A605A609A6070
:1028A0000023FB6007F1100300221A605A60FB79D5
:1028B00087F83830482387F83930312387F83A30A1
:1028C000562387F83B30762387F83C30FB790F3B63
:1028D000182B00F2A18001A252F823F0BF290008B2
:1028E000192A0008192A0008192A0008192A0008BC
:1028F000192A0008192A0008192A0008192A0008AC
:10290000192A0008192A0008192A0008192A00089B
:10291000192A0008192A0008192A0008192A00088B
:10292000192A0008192A000841290008192A000854
:10293000192A0008192A000889290008992900087D
:10294000BB79022B07D107F10C003B68344A0C21FC
:102950002CF01EF843E0BB79032B07D107F10C00E4
:102960003B68304A0C212CF013F838E0BB79042B7B
:1029700035D13B68632BA8BF632307F10C002A4ABB
:102980000C212CF005F82AE007F10C003B68274ADF
:102990000C212BF0FDFF23E03B68002B01DB202204
:1029A00000E02D223B68002BB8BF5B4207F10C0012
:1029B000009313461E4A0C212BF0EAFF10E0002280
:1029C00002212220FFF75AFF642205212620FFF76B
:1029D00055FF002206212720FFF750FF1DE000BF12
:1029E00007F10C0318462CF0CBF8024607F10C0156
:1029F00007F13803053318462BF0ECFD07F11802F8
:102A000007F1380311461846FFF713F807F11803CA
:102A1000184600F0BBFF00E000BF4837BD4680BD50
:102A2000C87C0308D87C0308E87C0308AC7C030856
:102A3000B87C030880B582B002AF2BF0FDF8FDF73B
:102A4000CDFE00F083F9FEF701FCFFF70FFBFEF768
:102A500087FBFFF791FAFEF7B7FD00F051F900F0A0
:102A6000A7FC002301930223009300234FF480620C
:102A70002F49304803F0EEFF002301930223009317
:102A800000234FF480622C492C4803F0E3FF00231D
:102A900001930223009300234FF4806228492948C0
:102AA00003F0D8FF002301930223009300234FF487
:102AB00080622549254803F0CDFF002301930123BF
:102AC000009300234FF480722149224803F0C2FF93
:102AD000002301930223009300234FF480621E49D8
:102AE0001E4803F0B7FF0023019301230093002346
:102AF0004FF480721A491B4803F0ACFF0023019386
:102B00000123009300234FF480721749174803F004
:102B1000A1FF002301930223009300234FF480625E
:102B20001349144803F096FF00BFBD4680BD00BFA7
:102B3000947C0308D5200008F87C0308D521000800
:102B4000047D0308552300080C7D03084526000872
:102B5000147D0308612600081C7D03088D260008EB
:102B6000247D0308ED260008287D0308312700088E
:102B7000307D0308F533000880B500AF03482AF024
:102B800028FE4FF47A7004F063F9F7E7347D030808
:102B9000B0B5ADF5047D02AF364B18684FF0FF338A
:102BA000009300230122072103F000FDC7F804026F
:102BB000D7F8043203F00103002B1FD02E4B1B6803
:102BC000002B18D12C4B01930223009300234FF4C8
:102BD00000722A492A4803F03DFFC7F80002D7F8DF
:102BE0000032012B03D127482AF0F3FD06E02648E6
:102BF0002AF0EFFD02E025482AF0EBFDD7F8043279
:102C000003F00203002B12D01B4B1B68002B0BD0D0
:102C1000194B1B68184604F087F8174B00221A60FE
:102C20001B482AF0D6FD02E01A482AF0D2FDD7F858
:102C3000043203F00403002BAED03B46164A1C4678
:102C400015460FCD0FC40FCD0FC42B6823603B4634
:102C500018462BF095FF02463B461344184605F0F4
:102C600070FF0E482AF0B5FD3B4618462AF0B1FD2C
:102C700092E700BF84E6002088E60020507D03082C
:102C8000792B0008587D0308747D0308987D03089C
:102C9000B47D0308C87D0308E07D0308047E0308B3
:102CA00080B582B000AF0346FB71FB79092B14D0CD
:102CB000092B19DC072B02D0082B07D014E00E4B90
:102CC0001B680121184603F09BFD11E00A4B1B68AD
:102CD0000221184603F094FD0AE0074B1B6804210B
:102CE000184603F08DFD03E004482AF072FD00BF92
:102CF00000BF0837BD4680BD84E600201C7E030867
:102D000080B582B002AF03F08BFB03460B4A136021
:102D10000A4B1B68002B03D109482AF05AFD0AE030
:102D2000002301930223009300234FF4806205499E
:102D3000054803F08FFE00BFBD4680BD84E600203D
:102D4000387E0308587E0308912B000880B483B0B6
:102D500000AF00237B60154B1B6B144A43F020032C
:102D60001363124B1B6B03F020037B607B68104BDB
:102D70001B680F4A23F07C5313600D4B1B680C4AF1
:102D800043F0A85313600A4B5B68094A23F4E043FD
:102D90005360074BDB68064A23F07C53D36000BFC7
:102DA0000C37BD465DF8047B704700BF0038024019
:102DB0000014024080B485B000AF03460A46FB71A0
:102DC0001346BB71FB791B021AB2BB791BB21343CA
:102DD0001BB27B810F23FB601BE07A89FB6842FA00
:102DE00003F303F00103002B04D0124B4FF4805285
:102DF0009A6103E00F4B4FF080529A610D4B4FF4F4
:102E000000529A610B4B4FF000529A61FB68013BF4
:102E1000FB60FB68002BE0DA064B4FF480429A61BE
:102E2000044B4FF080429A6100BF1437BD465DF8F5
:102E3000047B70470014024080B584B000AF0346A5
:102E40000A46FB711346BB71FB79092B02D8BB798B
:102E5000032B0BD9BB79012202FA03F3DBB2DB436C
:102E6000DBB21946FF20FFF7A5FF10E0FB790A4A05
:102E7000D35CDB43FB73BB79012202FA03F3BB7320
:102E8000BA7BFB7B11461846FFF794FF00BF00BFDB
:102E90001037BD4680BD00BF607E030880B586B098
:102EA00000AF78600023BB6000237B617B6842F247
:102EB0000F72934202DD42F20F737B607B6813F561
:102EC0007A7F01DC444B7B607B68002B04DA0123B2
:102ED0007B617B685B427B607A68404B83FB0213BB
:102EE0009910D317C91A0B469B000B445B00D11AEB
:102EF000CBB2FB727B68394A82FB03129210DB175C
:102F0000D21A364B83FB02139910D317C91A0B46FA
:102F10009B000B445B00D11ACBB2BB727B68304A7A
:102F200082FB03125211DB17D21A2C4B83FB0213C4
:102F30009910D317C91A0B469B000B445B00D11A9A
:102F4000CBB27B727B68274A82FB03129211DB179C
:102F5000D21A224B83FB02139910D317C91A0B46BE
:102F60009B000B445B00D11ACBB23B727B69002BF8
:102F700001D00A233B7200233B6124E007F10802E1
:102F80003B6913441B78092B0AD807F108023B69F7
:102F900013441B781A46144B9B5CDB43FB7301E024
:102FA000BF23FB7301223B6902FA03F3BB73BA7BB5
:102FB000FB7B11461846FFF7FDFE02201DF01EFDAB
:102FC0003B6901333B613B69032BD7DD00BF00BF89
:102FD0001837BD4680BD00BF19FCFFFF67666666F7
:102FE0001F85EB51D34D6210607E030880B586B01B
:102FF00000AF7860396007F110031A460121786844
:1030000000F014FE78617B69002B15D00023BB60B3
:103010000023FB603B691A4607F1080379691846EB
:103020002BF06EFE07F1080318462BF077FA0246E4
:103030003B681A60012300E0002318461837BD469C
:1030400080BD80B596B002AFF860B9607A6007F1D4
:103050004C0319467868FFF7C9FF0346002B41D09F
:10306000FB6C254A1360244B1968244B1B68244AC7
:10307000126807F14000019200930B46214A0C218F
:103080002BF086FC204A07F1300392E80300186019
:103090000433198007F1360300221A605A601A813E
:1030A00007F1400318462BF06BFD024607F1400183
:1030B00007F13003053318462BF08CFA07F11002A4
:1030C00007F1300311461846FEF7B3FC07F1100371
:1030D000184600F05BFC084B1B6819460B482AF0A9
:1030E00078FB04E00A4AB968F8682BF051FC002329
:1030F00018465037BD4680BDF8E60020FCE60020AB
:1031000000E700206C7E0308A47E03087C7E030891
:10311000907E030880B596B002AFF860B9607A601F
:1031200007F14C0319467868FFF760FF0346002B50
:1031300041D0FB6C254A1360254B1968234B1B6853
:10314000244A126807F14000019200930B46224A7C
:103150000C212BF01DFC214A07F1300392E80300FB
:1031600018600433198007F1360300221A605A6090
:103170001A8107F1400318462BF002FD024607F1C1
:10318000400107F13003053318462BF023FA07F10D
:10319000100207F1300311461846FEF74AFC07F10A
:1031A0001003184600F0F2FB084B1B6819460C4848
:1031B0002AF00FFB04E00B4AB968F8682BF0E8FB33
:1031C000002318465037BD4680BD00BFFCE60020F6
:1031D000F8E6002000E700206C7E0308A47E0308C8
:1031E000B47E0308C87E030880B596B002AFF860CD
:1031F000B9607A6007F14C0319467868FFF7F6FE6C
:103200000346002B44D0FB6C632BA8BF6323254AE5
:103210001360254B1968254B1B68224A126807F179
:103220004000019200930B46214A0C212BF0B0FB89
:10323000204A07F1300392E8030018600433198034
:1032400007F1360300221A605A601A8107F1400321
:1032500018462BF095FC024607F1400107F13003B8
:10326000053318462BF0B6F907F1100207F13003C9
:1032700011461846FEF7DDFB07F11003184600F073
:1032800085FB084B1B6819460B482AF0A2FA04E09C
:103290000A4AB968F8682BF07BFB002318465037C0
:1032A000BD4680BD00E70020F8E60020FCE60020D7
:1032B0006C7E0308A47E0308DC7E0308F07E03080E
:1032C00080B586B000AFF860B9607A6007F114038A
:1032D00019467868FFF78AFE0346002B0BD07B69FE
:1032E0001A4605212620FFF7C9FA7B6919460748C7
:1032F0002AF06FFA04E0064AB968F8682BF048FB38
:10330000002318461837BD4680BD00BF047F030860
:103310001C7F030880B586B000AFF860B9607A60A2
:1033200007F1140319467868FFF760FE0346002B87
:103330000BD07B691A4606212720FFF79FFA7B698D
:10334000194607482AF045FA04E0064AB968F868C1
:103350002BF01EFB002318461837BD4680BD00BF6A
:10336000347F03084C7F030880B584B000AFF86059
:10337000B9607A600A4B00221A600A4B00221A6078
:10338000094B00221A6009482AF023FA00220F2173
:103390000F20FFF773FA002318461037BD4680BD93
:1033A000F8E60020FCE6002000E70020687F030824
:1033B00080B500AF094800F065FB094800F062FBEA
:1033C000084800F05FFB084800F05CFB074800F08D
:1033D00059FB074800F056FB00BF80BD0080030882
:1033E000308003086080030898800308D4800308B5
:1033F0000081030880B582B000AF64220021374805
:103400002BF082F900F008FC0346354A13602AF0DD
:10341000ADF90346FB70FB78002B5BD0FB781846B8
:103420002AF090F9FB780D2B02D0FB780A2B33D1D0
:103430000A202AF087F92AF092F92A4B1B68274ABA
:103440000021D154264B1B6864221946234800F002
:103450005DFB7860224B1B681B78002B10D1224843
:103460002AF0B7F90FE01E4B1B6818462AF0B1F995
:103470001B4B1B6864221946002000F047FB786054
:103480007B68002BEFD16422002114482BF03CF91B
:10349000144B00221A601DE0FB78082B0ED1114B53
:1034A0001B68002B16DD0F4B1B68013B0D4A136098
:1034B0000C4B1B68094A0021D1540BE0094B1B68D7
:1034C000622B07DC074B1B685A1C06490A6003493C
:1034D000FA78CA54642003F0BBFC98E78CE600201D
:1034E000F0E60020F4E60020907F030880B58CB061
:1034F00000AF0023BB61714B1B6C704A43F48043E7
:1035000013646E4B1B6C03F48043BB61BB690023E7
:103510007B616A4B1B6B694A43F002031363674B81
:103520001B6B03F002037B617B6900233B61634BF0
:103530001B6B624A43F004031363604B1B6B03F085
:1035400004033B613B690023FB605C4B1B6B5B4AE4
:1035500043F004031363594B1B6B03F00403FB603C
:10356000FB680023BB60554B1B6B544A43F00203BE
:103570001363524B1B6B03F00203BB60BB68002359
:103580007B604E4B1B6B4D4A43F0080313634B4B60
:103590001B6B03F008037B607B684FF48063FB6167
:1035A00002233B620323BB6202237B620523FB628F
:1035B00007F11C03194642480FF0FEFC0423FB618F
:1035C00002233B620223BB6201237B620523FB6271
:1035D00007F11C0319463B480FF0EEFC0823FB6182
:1035E00002233B6202237B620523FB6207F11C037B
:1035F000194634480FF0E0FC334B344A1A60324B22
:103600001B681A68304B1B6822F040021A602E4B70
:103610004FF482725A602C4B2022DA612A4B00222E
:103620009A60294B00225A61274B00221A61264BCF
:1036300000229A62244B0022DA62234B0022DA60D5
:10364000214B00221A62204B4FF400729A611E4BEC
:1036500000225A621C4816F09DFD1B4B1B681A681D
:10366000194B1B6842F040021A604FF48053FB6113
:1036700001233B6201237B620223BB6207F11C032F
:1036800019460F480FF098FC4FF40043FB610123EB
:103690003B6201237B620223BB6207F11C031946D4
:1036A0000B480FF089FC01224FF4805104480FF0C1
:1036B00053FF00BF3037BD4680BD00BF0038024019
:1036C000000402400008024004E7002000380040E7
:1036D000000C024080B500AF2AF0C4F9FFF706FFE6
:1036E00000224FF4004113480FF036FF0522124923
:1036F000302000F099F805220F492A2000F094F8B4
:103700000021012000F036F80121022000F032F8FB
:103710002021112000F02EF83E21052000F02AF88B
:103720000621062000F026F80221002000F022F8F1
:1037300000BF80BD000C02401C00002080B586B098
:1037400002AF0346FB7107F10E02F91DC823009377
:103750000123074817F0D4F80346FB73FB7918469A
:1037600029F0F0FFBB7B18461037BD4680BD00BF77
:1037700004E7002080B582B000AF03460A46FB7123
:103780001346BB7100224FF4805110480FF0E4FE45
:1037900005202AF08DFCFB7943F02003DBB21846AC
:1037A000FFF7CCFF0A202AF083FCBB791846FFF70D
:1037B000C5FF05202AF07CFC01224FF4805103480C
:1037C0000FF0CAFE00BF0837BD4680BD00040240AE
:1037D00080B584B000AF0346FB7100224FF48051E6
:1037E00010480FF0B9FE05202AF062FCFB7918465C
:1037F000FFF7A4FF0346FB730A202AF059FCFF20C1
:10380000FFF79CFF0346BB7305202AF051FC012201
:103810004FF4805103480FF09FFEBB7B18461037D2
:10382000BD4680BD0004024080B586B000AF0346AF
:10383000B9607A60FB7300224FF4805119480FF091
:103840008BFE0A202AF034FCFB7B43F02003DBB222
:103850001846FFF773FF0A202AF02AFC00237B6139
:103860000CE07B69BA6813441B781846FFF766FFC3
:103870000A202AF01DFC7B6901337B617A697B6831
:103880009A42EEDB0A202AF013FC01224FF4805109
:1038900004480FF061FE0A202AF00AFC00BF183726
:1038A000BD4680BD0004024090B587B000AF03461E
:1038B000B9607A60FB7300224FF4805118480FF012
:1038C0004BFE0A202AF0F4FBFB7B1846FFF736FF7D
:1038D0000A202AF0EDFB00237B610DE07B69BA68CA
:1038E000D418FF20FFF72AFF034623700A202AF08E
:1038F000DFFB7B6901337B617A697B689A42EDDB90
:103900000A202AF0D5FB01224FF4805104480FF021
:1039100023FE0A202AF0CCFB00BF1C37BD4690BD19
:103920000004024080B584B000AF78600720FFF744
:103930004FFF0346FB73FB7B03F04003002B1DD0BE
:103940000A202AF0B5FB202279686120FFF7ACFF3E
:103950000A202AF0ADFB0021E220FFF70BFF0A202E
:103960002AF0A6FB00224FF4004107480FF0F4FDB7
:1039700070210720FFF7FEFE012300E00023184618
:103980001037BD4680BD00BF000C024080B582B03C
:1039900000AF786072210020FFF7ECFE20227968EA
:1039A000A020FFF741FF00224FF4004113480FF021
:1039B000D3FD14202AF07CFB01224FF400410F4874
:1039C0000FF0CAFD14202AF073FB00224FF40041CF
:1039D0000A480FF0C1FD41F294102AF069FB7321EF
:1039E0000020FFF7C7FE01224FF4004103480FF00B
:1039F000B3FD00BF0837BD4680BD00BF000C0240CC
:103A000080B500AF03210020FFF7B4FE01224FF480
:103A1000004102480FF0A0FD00BF80BD000C024035
:103A200080B500AF01224FF4004102480FF094FD31
:103A300000BF80BD000C024080B400AF01231846D7
:103A4000BD465DF8047B704780B582B000AF17209B
:103A5000FFF7BEFE0346FB71FB7903F01003184627
:103A60000837BD4680BD80B582B000AF1720FFF794
:103A7000AFFE0346FB71FB7903F0010318460837DC
:103A8000BD4680BD80B586B000AF786000237B6105
:103A90007B68002B0AD14FF0500383F31188BFF3EA
:103AA0006F8FBFF34F8FFB6000BFFEE70820FCF76E
:103AB00019FC38613B69002B0AD14FF0500383F3A6
:103AC0001188BFF36F8FBFF34F8FBB6000BFFEE75E
:103AD0003B69002B12D005F0AFFF3B697A681A6092
:103AE0003B6900225A60084B1B683A695A60064AD3
:103AF0003B69136005F0D0FF01237B617B691846A9
:103B00001837BD4680BD00BF2C00002080B588B0AE
:103B100000AFF860B9607A600123FB613A4B1B6823
:103B2000002B41D1384B394A1A6037E0364B1B68BD
:103B30001B681B68BB61B8692BF022F87861FA68D2
:103B40007B6913441B78202B05D0FA687B691344EA
:103B50001B78002B1DD17A69B969F8682BF07EF8C3
:103B60000346002B15D1284B1B681B6893F90C30BA
:103B7000002B18DBF86800F0DFF803461A46224BEA
:103B80001B681B6893F90C309A420CD00023FB6130
:103B900009E01D4B1B685B681B4A13601A4B1B68CE
:103BA000002BC3D100E000BF174B1B68002B0BD0CC
:103BB000FB69002B08D17A681549B8682BF0A0F88A
:103BC000114B00221A601AE00F4B1B68002B0FD01C
:103BD0000D4B1B681B689B68FA687968B868984742
:103BE000F861FB69002B0AD1074B00221A6006E03E
:103BF0007A680849B8682BF083F80023FB61FB69F9
:103C000018462037BD4680BDC0E7002024000020B4
:103C100058810308B081030880B400AF024B1846F6
:103C2000BD465DF8047B70475CE7002080B487B038
:103C300000AFF860B9607A6000237B6100233B61CC
:103C40007B6800221A603BE0FB680133FB60FB6885
:103C50001B78002B07D0FB681B78202BF4D102E0E7
:103C6000FB680133FB60FB681B78002B03D0FB680B
:103C70001B78202BF4D0FB681B78002B25D07B69A8
:103C800001337B617A69BB689A4219D1FB683B6159
:103C900007E07B681B685A1C7B681A60FB6801336D
:103CA000FB60FB681B78002B03D0FB681B78202B84
:103CB000EFD17B681B68002B09D100233B6106E034
:103CC0007A69BB689A42C2D302E000BF00E000BF3D
:103CD0003B6918461C37BD465DF8047B704780B5CC
:103CE00086B000AFF860B9607A60114B1B68002B9A
:103CF00002D10F4B0F4A1A600D4B1B681B685B68A3
:103D0000BA681946F8682AF0FBFF094B1B685B6824
:103D1000074A1360064B1B68002B02D100237B610E
:103D200001E001237B617B6918461837BD4680BDE1
:103D3000C4E700202400002080B485B000AF786084
:103D40000023FB730023BB6014E07B681B78202BEF
:103D50000BD1BB68012B0AD097F90F30DBB20133CE
:103D6000DBB2FB730123BB6001E00023BB607B6817
:103D700001337B607B681B78002BE6D1BB68012B8D
:103D800005D197F90F30DBB2013BDBB2FB7397F93A
:103D90000F3018461437BD465DF8047B704700BFEE
:103DA00080B586B000AF7860396001237B617B68A5
:103DB0003B613B69002B0AD14FF0500383F311881C
:103DC000BFF36F8FBFF34F8FFB6000BFFEE73B6910
:103DD000002B5DD03B69DB6B002B59D03B691A6C23
:103DE0003B69DB6B0021A3FB0223002B00D00121E8
:103DF0000B46002B4CD105F01FFE3B691A683B694E
:103E0000DB6B3969096C01FB03F31A443B699A6067
:103E10003B6900229A633B691A683B695A603B69B7
:103E20001A683B69DB6B013B3969096C01FB03F3E1
:103E30001A443B69DA603B69FF2283F844203B69FE
:103E4000FF2283F845203B68002B14D13B691B6996
:103E5000002B1AD03B691033184604F017F80346BC
:103E6000002B12D0154B4FF080521A60BFF34F8FCA
:103E7000BFF36F8F09E03B691033184601F08CFBEC
:103E80003B692433184601F087FB05F005FE01E08D
:103E900000237B617B69002B0AD14FF0500383F331
:103EA0001188BFF36F8FBFF34F8FBB6000BFFEE77A
:103EB0007B6918461837BD4680BD00BF04ED00E0A1
:103EC00080B58AB002AFF860B9601346FB71002379
:103ED000FB61FB68002B2ED00021BA68FB68A3FBB6
:103EE0000223002B00D001210B46002B23D1FB68BD
:103EF000BA6802FB03F313F1550F1CD8FB68BA68CC
:103F000002FB03F3BB61BB6954331846FCF7EAF9C3
:103F1000F861FB69002B1CD0FB697B617B69543322
:103F20007B61FA79FB69009313467A69B968F8688E
:103F300000F014F80DE0FB69002B0AD14FF050039C
:103F400083F31188BFF36F8FBFF34F8F3B6100BFC7
:103F5000FEE7FB6918462037BD4680BD80B584B0BA
:103F600000AFF860B9607A60FB70BB68002B03D1CA
:103F7000BB69BA691A6002E0BB697A681A60BB69FA
:103F8000FA68DA63BB69BA681A640121B869FFF795
:103F900007FFBB69FA7883F85020BB6900229A6456
:103FA00000BF1037BD4680BD80B582B000AF7860DD
:103FB0007B68002B0ED07B6800229A607B68002211
:103FC0001A607B680022DA600023002200217868F2
:103FD00000F0B4F800BF0837BD4680BD80B586B09C
:103FE00000AF0346FB7101237B6100233B61FB793A
:103FF0001A4639697869FFF763FFF860F868FFF7D8
:10400000D3FFFB6818461837BD4680BD90B587B012
:1040100000AF78607B683B613B69002B0AD14FF0B1
:10402000500383F31188BFF36F8FBFF34F8FFB6093
:1040300000BFFEE73B699C6804F036FB03469C42E8
:1040400011D13B69DB685A1E3B69DA603B69DB686A
:10405000002B05D1002300220021386900F06EF802
:1040600001237B6101E000237B617B6918461C37DB
:10407000BD4690BD90B587B000AF786039607B6871
:104080003B613B69002B0AD14FF0500383F3118849
:10409000BFF36F8FBFF34F8FFB6000BFFEE73B693D
:1040A0009C6804F001FB03469C4207D13B69DB6836
:1040B0005A1C3B69DA6001237B610CE0396838697E
:1040C00000F0B4FB78617B69002B04D03B69DB68AE
:1040D0005A1C3B69DA607B6918461C37BD4690BDA7
:1040E00080B584B000AF786039600023FB607B68E6
:1040F000002B10D03A687B689A420CD8022200212B
:104100007868FFF7DDFEF860FB68002B11D0FB68D4
:104110003A689A630DE0FB68002B0AD14FF0500318
:1041200083F31188BFF36F8FBFF34F8FBB6000BF66
:10413000FEE7FB6818461037BD4680BD80B58EB0DF
:1041400000AFF860B9607A603B6000237B63FB6876
:104150003B633B6B002B0AD14FF0500383F3118874
:10416000BFF36F8FBFF34F8F7B6200BFFEE7BB686B
:10417000002B03D13B6B1B6C002B01D1012300E012
:104180000023002B0AD14FF0500383F31188BFF3B3
:104190006F8FBFF34F8F3B6200BFFEE73B68022B80
:1041A00003D13B6BDB6B012B01D1012300E000232A
:1041B000002B0AD14FF0500383F31188BFF36F8FA8
:1041C000BFF34F8FFB6100BFFEE704F07DFA0346AB
:1041D000002B02D17B68002B01D1012300E00023DA
:1041E000002B0AD14FF0500383F31188BFF36F8F78
:1041F000BFF34F8FBB6100BFFEE705F01DFC3B6BBB
:104200009A6B3B6BDB6B9A4202D33B68022B45D126
:104210003B6B9B6BFB623A68B968386B00F0B0FE91
:10422000B8623B6B9B6C002B14D03B68022B02D115
:10423000FB6A002B2ED1386B01F03DF90346002BB1
:1042400028D04A4B4FF080521A60BFF34F8FBFF314
:104250006F8F1FE03B6B5B6A002B10D03B6B2433EE
:10426000184603F013FE0346002B13D03F4B4FF0CC
:1042700080521A60BFF34F8FBFF36F8F0AE0BB6AA3
:10428000002B07D0394B4FF080521A60BFF34F8F8D
:10429000BFF36F8F05F000FC012363E07B68002B08
:1042A00003D105F0F9FB00235CE07B6B002B06D10A
:1042B00007F11003184603F0A5FF01237B6305F007
:1042C000EBFB03F0E5F905F0B7FB3B6B93F84430EB
:1042D0005BB2B3F1FF3F03D13B6B002283F8442074
:1042E0003B6B93F845305BB2B3F1FF3F03D13B6BBF
:1042F000002283F8452005F0CFFB3A1D07F110039B
:104300001146184603F094FF0346002B24D1386B66
:1043100000F05FFF0346002B18D03B6B10337A6828
:104320001146184603F038FD386B00F0B9FE03F073
:10433000BDF90346002B7FF460AF0C4B4FF0805269
:104340001A60BFF34F8FBFF36F8F56E7386B00F0E3
:10435000A7FE03F0ABF950E7386B00F0A1FE03F0C5
:10436000A5F9002318463837BD4680BD04ED00E0AE
:1043700080B592B000AFF860B9607A603B60FB68CE
:104380003B643B6C002B0AD14FF0500383F3118840
:10439000BFF36F8FBFF34F8FFB6200BFFEE7BB68B9
:1043A000002B03D13B6C1B6C002B01D1012300E0DF
:1043B0000023002B0AD14FF0500383F31188BFF381
:1043C0006F8FBFF34F8FBB6200BFFEE73B68022BCE
:1043D00003D13B6CDB6B012B01D1012300E00023F7
:1043E000002B0AD14FF0500383F31188BFF36F8F76
:1043F000BFF34F8F7B6200BFFEE705F0FEFBEFF3DC
:1044000011824FF0500383F31188BFF36F8FBFF316
:104410004F8F3A62FB613B6AFB633B6C9A6B3B6C70
:10442000DB6B9A4202D33B68022B5DD13B6C93F865
:10443000453087F83B303B6C9B6B7B633A68B968CF
:10444000386C00F09DFD97F93B30B3F1FF3F29D167
:104450003B6C9B6C002B12D03B68022B02D17B6B18
:10446000002B3ED1386C01F026F80346002B38D0E3
:104470007B68002B35D07B6801221A6031E03B6CF1
:104480005B6A002B2DD03B6C2433184603F0FEFCF6
:104490000346002B25D07B68002B22D07B680122AD
:1044A0001A601EE003F020FA386397F93B303A6B4C
:1044B0009A4216D997F93B307F2B0AD14FF050031F
:1044C00083F31188BFF36F8FBFF34F8FBB6100BFC2
:1044D000FEE797F83B300133DBB25AB23B6C83F80E
:1044E000452001237B6401E000237B64FB6B7B613F
:1044F0007B6983F3118800BF7B6C18464837BD4643
:1045000080BD80B590B000AF786039607B68BB63D8
:10451000BB6B002B0AD14FF0500383F31188BFF31C
:104520006F8FBFF34F8F7B6200BFFEE7BB6B1B6CCF
:10453000002B0AD04FF0500383F31188BFF36F8F25
:10454000BFF34F8F3B6200BFFEE7BB6B1B68002BC6
:1045500003D1BB6B9B68002B01D1012300E000233A
:10456000002B0AD14FF0500383F31188BFF36F8FF4
:10457000BFF34F8FFB6100BFFEE705F03EFBEFF39B
:1045800011824FF0500383F31188BFF36F8FBFF395
:104590004F8FBA617B61BB697B63BB6B9B6B3B637A
:1045A000BB6BDB6B3A6B9A4253D2BB6B93F84530D3
:1045B00087F82F303B6B5A1CBB6B9A6397F92F30EF
:1045C000B3F1FF3F23D1BB6B9B6C002B0CD0B86BBE
:1045D00000F071FF0346002B38D03B68002B35D02C
:1045E0003B6801221A6031E0BB6B5B6A002B2DD067
:1045F000BB6B2433184603F049FC0346002B25D03F
:104600003B68002B22D03B6801221A601EE003F0B9
:104610006BF9B86297F92F30BA6A9A4216D997F9AE
:104620002F307F2B0AD14FF0500383F31188BFF353
:104630006F8FBFF34F8F3B6100BFFEE797F82F30BE
:104640000133DBB25AB2BB6B83F845200123FB6315
:1046500001E00023FB637B6BFB60FB6883F3118845
:1046600000BFFB6B18464037BD4680BD80B58CB09F
:1046700000AFF860B9607A600023FB62FB68BB6240
:10468000BB6A002B0AD14FF0500383F31188BFF3AC
:104690006F8FBFF34F8F3B6200BFFEE7BB68002BFD
:1046A00003D1BB6A1B6C002B01D1012300E0002366
:1046B000002B0AD14FF0500383F31188BFF36F8FA3
:1046C000BFF34F8FFB6100BFFEE703F0FDFF034622
:1046D000002B02D17B68002B01D1012300E00023D5
:1046E000002B0AD14FF0500383F31188BFF36F8F73
:1046F000BFF34F8FBB6100BFFEE705F09DF9BB6ABA
:104700009B6B7B627B6A002B1FD0B968B86A00F094
:10471000A1FC7B6A5A1EBB6A9A63BB6A1B69002BA9
:104720000FD0BB6A1033184603F0B0FB0346002BD2
:1047300007D03D4B4FF080521A60BFF34F8FBFF34D
:104740006F8F05F0A9F9012369E07B68002B03D185
:1047500005F0A2F9002362E0FB6A002B06D107F105
:104760001003184603F04EFD0123FB6205F094F997
:1047700002F08EFF05F060F9BB6A93F844305BB23B
:10478000B3F1FF3F03D1BB6A002283F84420BB6A28
:1047900093F845305BB2B3F1FF3F03D1BB6A00220F
:1047A00083F8452005F078F93A1D07F1100311460A
:1047B000184603F03DFD0346002B23D1B86A00F0F4
:1047C000CEFC0346002B17D0BB6A24337A6811460F
:1047D000184603F0E1FAB86A00F062FC02F066FFE6
:1047E0000346002B89D1104B4FF080521A60BFF363
:1047F0004F8FBFF36F8F80E7B86A00F051FC02F073
:1048000055FF7AE7B86A00F04BFC02F04FFFB86A38
:1048100000F0A5FC0346002B3FF46FAF00231846C1
:104820003037BD4680BD00BF04ED00E080B58EB0DE
:1048300000AF7860396000237B637B68FB620023F4
:104840003B63FB6A002B0AD14FF0500383F31188BE
:10485000BFF36F8FBFF34F8F3B6200BFFEE7FB6A72
:104860001B6C002B0AD04FF0500383F31188BFF369
:104870006F8FBFF34F8FFB6100BFFEE703F024FF94
:104880000346002B02D13B68002B01D1012300E03D
:104890000023002B0AD14FF0500383F31188BFF39C
:1048A0006F8FBFF34F8FBB6100BFFEE705F0C4F809
:1048B000FB6A9B6BBB62BB6A002B24D0BB6A5A1E8F
:1048C000FB6A9A63FB6A1B68002B04D104F0E8F9C9
:1048D0000246FB6A9A60FB6A1B69002B0FD0FB6AD9
:1048E0001033184603F0D2FA0346002B07D0544B7E
:1048F0004FF080521A60BFF34F8FBFF36F8F05F0F8
:10490000CBF8012397E03B68002B11D13B6B002BC8
:104910000AD04FF0500383F31188BFF36F8FBFF3BA
:104920004F8F7B6100BFFEE705F0B6F8002382E001
:104930007B6B002B06D107F10C03184603F062FCD9
:1049400001237B6305F0A8F802F0A2FE05F074F8DD
:10495000FB6A93F844305BB2B3F1FF3F03D1FB6ACB
:10496000002283F84420FB6A93F845305BB2B3F130
:10497000FF3F03D1FB6A002283F8452005F08CF845
:104980003A4607F10C031146184603F051FC034662
:10499000002B32D1F86A00F0E2FB0346002B26D050
:1049A000FB6A1B68002B09D105F046F8FB6A9B687F
:1049B000184603F0A7FE386305F06EF8FB6A24334F
:1049C0003A681146184603F0E7F9F86A00F068FB08
:1049D00002F06CFE0346002B7FF468AF184B4FF0DB
:1049E00080521A60BFF34F8FBFF36F8F5EE7F86A94
:1049F00000F056FB02F05AFE58E7F86A00F050FB50
:104A000002F054FEF86A00F0AAFB0346002B3FF4C4
:104A10004DAF3B6B002B0DD005F00EF8F86A00F09F
:104A200097FA7862FB6A9B68796A184603F0ACFFD4
:104A300005F032F8002318463837BD4680BD00BF68
:104A400004ED00E080B58EB000AFF860B9607A6028
:104A500000237B63FB683B633B6B002B0AD14FF069
:104A6000500383F31188BFF36F8FBFF34F8F7B62C7
:104A700000BFFEE7BB68002B03D13B6B1B6C002B18
:104A800001D1012300E00023002B0AD14FF0500395
:104A900083F31188BFF36F8FBFF34F8F3B6200BF6B
:104AA000FEE703F011FE0346002B02D17B68002BCA
:104AB00001D1012300E00023002B0AD14FF0500365
:104AC00083F31188BFF36F8FBFF34F8FFB6100BF7C
:104AD000FEE704F0B1FF3B6B9B6BFB62FB6A002BB4
:104AE00021D03B6BDB68BB62B968386B00F0B2FA6F
:104AF0003B6BBA6ADA603B6B5B6A002B0FD03B6B97
:104B00002433184603F0C2F90346002B07D03D4B6F
:104B10004FF080521A60BFF34F8FBFF36F8F04F0D6
:104B2000BBFF012369E07B68002B03D104F0B4FFD5
:104B3000002362E07B6B002B06D107F114031846BB
:104B400003F060FB01237B6304F0A6FF02F0A0FDED
:104B500004F072FF3B6B93F844305BB2B3F1FF3F5C
:104B600003D13B6B002283F844203B6B93F8453024
:104B70005BB2B3F1FF3F03D13B6B002283F84520CA
:104B800004F08AFF3A1D07F114031146184603F09A
:104B90004FFB0346002B23D1386B00F0E0FA0346AD
:104BA000002B17D03B6B24337A681146184603F06C
:104BB000F3F8386B00F074FA02F078FD0346002B2E
:104BC00087D1104B4FF080521A60BFF34F8FBFF365
:104BD0006F8F7EE7386B00F063FA02F067FD78E7CD
:104BE000386B00F05DFA02F061FD386B00F0B7FA47
:104BF0000346002B3FF46DAF002318463837BD46FF
:104C000080BD00BF04ED00E080B590B000AFF8605B
:104C1000B9607A60FB68BB63BB6B002B0AD14FF0B5
:104C2000500383F31188BFF36F8FBFF34F8F7B6205
:104C300000BFFEE7BB68002B03D1BB6B1B6C002BD6
:104C400001D1012300E00023002B0AD14FF05003D3
:104C500083F31188BFF36F8FBFF34F8F3B6200BFA9
:104C6000FEE704F0CAFFEFF311824FF0500383F325
:104C70001188BFF36F8FBFF34F8FFA61BB61FB6980
:104C80007B63BB6B9B6B3B633B6B002B46D0BB6B6F
:104C900093F8443087F82F30B968B86B00F0DAF930
:104CA0003B6B5A1EBB6B9A6397F92F30B3F1FF3FF2
:104CB00012D1BB6B1B69002B2DD0BB6B1033184678
:104CC00003F0E4F80346002B25D07B68002B22D0AC
:104CD0007B6801221A601EE002F006FEB86297F9B6
:104CE0002F30BA6A9A4216D997F92F307F2B0AD102
:104CF0004FF0500383F31188BFF36F8FBFF34F8FD3
:104D00007B6100BFFEE797F82F300133DBB25AB268
:104D1000BB6B83F844200123FB6301E00023FB63AA
:104D20007B6B3B613B6983F3118800BFFB6B1846CB
:104D30004037BD4680BD80B58CB000AF786039602B
:104D40007B68BB62BB6A002B0AD14FF0500383F330
:104D50001188BFF36F8FBFF34F8FFB6100BFFEE77A
:104D60003B68002B03D1BB6A1B6C002B01D10123D4
:104D700000E00023002B0AD14FF0500383F3118889
:104D8000BFF36F8FBFF34F8FBB6100BFFEE7BB6AFE
:104D90001B6C002B0AD14FF0500383F31188BFF333
:104DA0006F8FBFF34F8F7B6100BFFEE704F025FFDD
:104DB000EFF311824FF0500383F31188BFF36F8F2D
:104DC000BFF34F8F3A61FB603B697B62BB6A9B6BB1
:104DD000002B0CD0BB6ADB683B623968B86A00F014
:104DE00039F9BB6A3A6ADA600123FB6201E0002309
:104DF000FB627B6ABB60BB6883F3118800BFFB6A00
:104E000018463037BD4680BD80B584B000AF7860AD
:104E10007B68002B0AD14FF0500383F31188BFF356
:104E20006F8FBFF34F8FBB6000BFFEE704F004FE3F
:104E30007B689B6BFB6004F02FFEFB681846103705
:104E4000BD4680BD80B586B000AF78607B687B6171
:104E50007B69002B0AD14FF0500383F31188BFF315
:104E60006F8FBFF34F8FFB6000BFFEE704F0E4FDE0
:104E70007B69DA6B7B699B6BD31A3B6104F00CFE98
:104E80003B6918461837BD4680BD80B487B000AF77
:104E900078607B687B617B69002B0AD14FF05003FF
:104EA00083F31188BFF36F8FBFF34F8FFB6000BF99
:104EB000FEE77B699B6B3B613B6918461C37BD462F
:104EC0005DF8047B704780B584B000AF78607B6884
:104ED000FB60FB68002B0AD14FF0500383F311886D
:104EE000BFF36F8FBFF34F8FBB6000BFFEE7F86863
:104EF00000F030FAF868FBF7D5FA00BF1037BD466E
:104F000080BD80B483B000AF78607B68DB6C1846EE
:104F10000C37BD465DF8047B704780B483B000AFAA
:104F2000786039607B683A68DA6400BF0C37BD4648
:104F30005DF8047B704780B483B000AF78607B6815
:104F400093F8503018460C37BD465DF8047B704727
:104F500080B485B000AF78607B685B6A002B06D0B8
:104F60007B681B6B1B68C3F10703FB6001E0002338
:104F7000FB60FB6818461437BD465DF8047B70473C
:104F800080B586B000AFF860B9607A6000237B61BD
:104F9000FB689B6B3B61FB681B6C002B0DD1FB68B6
:104FA0001B68002B4DD1FB689B68184603F048FC3A
:104FB0007861FB6800229A6043E07B68002B19D17E
:104FC000FB685868FB681B6C1A46B96829F002FB3D
:104FD000FB685A68FB681B6C1A44FB685A60FB68E4
:104FE0005A68FB689B689A422BD3FB681A68FB6877
:104FF0005A6026E0FB68D868FB681B6C1A46B968E3
:1050000029F0E8FAFB68DA68FB681B6C5B421A441B
:10501000FB68DA60FB68DA68FB681B689A4207D2B3
:10502000FB689A68FB681B6C5B421A44FB68DA6099
:105030007B68022B05D13B69002B02D03B69013B09
:105040003B613B695A1CFB689A637B6918461837B9
:10505000BD4680BD80B582B000AF786039607B68A6
:105060001B6C002B18D07B68DA687B681B6C1A44B9
:105070007B68DA607B68DA687B689B689A4203D356
:105080007B681A687B68DA607B68D9687B681B6C10
:105090001A46386829F09EFA00BF0837BD4680BD21
:1050A00080B584B000AF786004F0C6FC7B6893F8EC
:1050B0004530FB731EE07B689B6C002B08D0786842
:1050C00000F0F9F90346002B10D003F017F90DE0BA
:1050D0007B685B6A002B12D07B682433184602F091
:1050E000D5FE0346002B01D003F008F9FB7B013B02
:1050F000DBB2FB7397F90F30002BDCDC00E000BF64
:105100007B68FF2283F8452004F0C6FC04F094FC81
:105110007B6893F84430BB7311E07B681B69002BFC
:1051200012D07B681033184602F0B0FE0346002B05
:1051300001D003F0E3F8BB7B013BDBB2BB7397F913
:105140000E30002BE9DC00E000BF7B68FF2283F813
:10515000442004F0A1FC00BF1037BD4680BD80B5DF
:1051600084B000AF786004F067FC7B689B6B002B19
:1051700002D10123FB6001E00023FB6004F08CFC02
:10518000FB6818461037BD4680BD80B487B000AFBD
:1051900078607B683B613B69002B0AD14FF050037C
:1051A00083F31188BFF36F8FBFF34F8FFB6000BF96
:1051B000FEE73B699B6B002B02D101237B6101E081
:1051C00000237B617B6918461C37BD465DF8047B74
:1051D000704780B584B000AF786004F02DFC7B6828
:1051E0009A6B7B68DB6B9A4202D10123FB6001E082
:1051F0000023FB6004F050FCFB6818461037BD46E6
:1052000080BD80B487B000AF78607B683B613B694C
:10521000002B0AD14FF0500383F31188BFF36F8F37
:10522000BFF34F8FFB6000BFFEE73B699A6B3B69A2
:10523000DB6B9A4202D101237B6101E000237B6199
:105240007B6918461C37BD465DF8047B704780B407
:1052500087B000AF7860396000233B617B68002B2A
:105260000AD14FF0500383F31188BFF36F8FBFF360
:105270004F8FFB6000BFFEE73B68002B24D000236C
:105280007B611EE0184A7B69DB0013445B687A6827
:105290009A4205D17B69DB00134A13443B6113E05A
:1052A0003B69002B0AD1104A7B6952F83330002B3E
:1052B00004D17B69DB000C4A13443B617B690133F9
:1052C0007B617B69072BDDD93B69002B05D03B69EE
:1052D0003A681A603B697A685A6000BF1C37BD465D
:1052E0005DF8047B704700BFACE9002080B487B054
:1052F00000AF786000233B617B68002B0AD14FF040
:10530000500383F31188BFF36F8FBFF34F8FFB60A0
:1053100000BFFEE700237B6110E00D4A7B69DB00E4
:1053200013445B687A689A4205D1094A7B6952F84E
:1053300033303B6105E07B6901337B617B69072B7F
:10534000EBD93B6918461C37BD465DF8047B7047B6
:10535000ACE9002080B485B000AF78607B68002B9A
:105360000AD14FF0500383F31188BFF36F8FBFF35F
:105370004F8FBB6000BFFEE70023FB6016E0104AC2
:10538000FB68DB0013445B687A689A420BD10C4AD5
:10539000FB68002142F83310094AFB68DB00134424
:1053A00000225A6006E0FB680133FB60FB68072BB4
:1053B000E5D900BF00BF1437BD465DF8047B7047D8
:1053C000ACE9002080B584B000AF786000220421F1
:1053D0007868FEF775FDF860FB6818461037BD4623
:1053E00080BD80B584B000AF7860396004F024FBE4
:1053F0007B689B6C002B02D00023FB600BE07B687A
:105400009B6B002B02D00023FB6004E07B683A68B2
:105410009A640123FB6004F03FFBFB6818461037D9
:10542000BD4680BD80B584B000AF786039607B68D0
:10543000BB60BB689B6C3A689A4202D00023FB6059
:105440000FE0BB689B6B002B02D00023FB6008E0E1
:1054500004F0F2FABB6800229A6404F01DFB0123F9
:10546000FB60FB6818461037BD4680BD80B584B030
:1054700000AF786039600023FB6007F10C033A68E5
:1054800019467868FFF7F2F8FB6818461037BD46F2
:1054900080BD80B584B000AF78600023FB6007F169
:1054A0000C03002219467868FFF7AEFBFB6818462C
:1054B0001037BD4680BD80B58AB000AF78607B688C
:1054C0009B6C3B6200237B623B6A002B0AD14FF04E
:1054D000500383F31188BFF36F8FBFF34F8F7B614E
:1054E00000BFFEE73B6A9A6B3B6ADB6B9A420AD3CA
:1054F0004FF0500383F31188BFF36F8FBFF34F8FCB
:105500003B6100BFFEE73B6A9A6B3B6ADB6B9A42EA
:105510003CD23B6A93F84530FB773B1D002219468D
:10552000386AFFF72DFD786297F91F30B3F1FF3F1E
:105530000ED13B6A5B6A002B28D03B6A24331846A5
:1055400002F0A4FC0346002B20D001237B621DE067
:1055500002F0CAF9B86197F91F30BA699A4215D9B1
:1055600097F91F307F2B0AD14FF0500383F3118836
:10557000BFF36F8FBFF34F8FFB6000BFFEE7FB7F72
:105580000133DBB25AB23B6A83F845207B6A184686
:105590002837BD4680BD00BF80B483B000AF7860BF
:1055A0007B6803F108027B685A607B684FF0FF322A
:1055B0009A607B6803F108027B68DA607B6803F11C
:1055C00008027B681A617B6800221A6000BF0C37F2
:1055D000BD465DF8047B704780B483B000AF78604F
:1055E0007B6800221A6100BF0C37BD465DF8047B62
:1055F000704780B485B000AF786039607B685B68C5
:10560000FB603B68FA685A60FB689A683B689A607E
:10561000FB689B683A685A60FB683A689A603B6826
:105620007A681A617B681B685A1C7B681A6000BF25
:105630001437BD465DF8047B704780B485B000AF79
:10564000786039603B681B68BB60BB68B3F1FF3FA3
:1056500003D17B681B69FB600CE07B680833FB604F
:1056600002E0FB685B68FB60FB685B681B68BA680C
:105670009A42F6D2FB685A683B685A603B685B689E
:105680003A689A603B68FA689A60FB683A685A60C0
:105690003B687A681A617B681B685A1C7B681A60D1
:1056A00000BF1437BD465DF8047B704780B485B0F9
:1056B00000AF78607B681B69FB607B685B687A6819
:1056C00092689A607B689B687A6852685A60FB6847
:1056D0005B687A689A4203D17B689A68FB685A6073
:1056E0007B6800221A61FB681B685A1EFB681A60FF
:1056F000FB681B6818461437BD465DF8047B70478D
:1057000080B58CB002AFF860B9607A607B68012B1D
:1057100010D1012387F82330FB68042B1BD84FF0EE
:10572000500383F31188BFF36F8FBFF34F8FFB617B
:1057300000BFFEE7002387F82330FB68002B0AD167
:105740004FF0500383F31188BFF36F8FBFF34F8F78
:10575000BB6100BFFEE7BA68FB689A420AD94FF006
:10576000500383F31188BFF36F8FBFF34F8F7B61BB
:1057700000BFFEE7BB68002B01D10123BB60FB68C3
:1057800013F1260F09D8FB680133FB60FB68243353
:105790001846FAF7A7FD786201E000237B627B6A76
:1057A000002B0AD07B6A03F1240197F82330009381
:1057B000BB68FA68786A00F0D7FD7B6A184628371C
:1057C000BD4680BD80B584B000AF78607B68FB606B
:1057D000FB68002B0AD14FF0500383F31188BFF30D
:1057E0006F8FBFF34F8FBB6000BFFEE7FB681B7F6F
:1057F00003F00203002B03D1F868FAF753FE04E02C
:1058000024220021F86828F07FFF00BF1037BD4632
:1058100080BD80B588B002AF78607B683B610023B3
:105820007B613B69002B0AD14FF0500383F3118851
:10583000BFF36F8FBFF34F8FBB6000BFFEE73B69C5
:105840001B6AFB6004F0F8F83B691B69002B15D15B
:105850003B695B69002B11D13B6999693B699A6887
:105860003B69D8683B691B7F00930346386900F0A9
:105870007BFD01237B613B69FA681A6204F00CF935
:105880007B6918461837BD4680BD80B487B000AF2D
:10589000786039607B683B613B69002B0AD14FF02F
:1058A000500383F31188BFF36F8FBFF34F8FFB60FB
:1058B00000BFFEE73B68002B01D101233B603B6941
:1058C0009B683A689A4205D23B693A68DA600123DC
:1058D0007B6101E000237B617B6918461C37BD4674
:1058E0005DF8047B704780B487B000AF78607B6858
:1058F0003B613B69002B0AD14FF0500383F31188C1
:10590000BFF36F8FBFF34F8FBB6000BFFEE73B69F4
:105910001B68FB603B699A683B691B6813447B61A9
:105920003B695B687A69D31A7B613B691B68FA68DB
:105930009A42ECD17B69013B7B613B699B687A6948
:105940009A4204D33B699B687A69D31A7B617B696D
:1059500018461C37BD465DF8047B704780B586B09D
:1059600000AF78607B687B617B69002B0AD14FF0C8
:10597000500383F31188BFF36F8FBFF34F8FFB602A
:1059800000BFFEE7786900F0CFFC38613B6918463C
:105990001837BD4680BD80B592B002AFF860B960DF
:1059A0007A603B60FB687B630023FB637B68BB63BF
:1059B00000233B63BB68002B0AD14FF0500383F3F5
:1059C0001188BFF36F8FBFF34F8FBB6200BFFEE73D
:1059D0007B6B002B0AD14FF0500383F31188BFF388
:1059E0006F8FBFF34F8F7B6200BFFEE77B6B9B68BF
:1059F000013B3B637B6B1B7F03F00103002B18D043
:105A0000BB6B0433BB63BA6B7B689A420AD84FF016
:105A1000500383F31188BFF36F8FBFF34F8F3B6247
:105A200000BFFEE7BA6B3B6B9A4208D900233B608C
:105A300005E0BA6B3B6B9A4201D93B6BBB633B6899
:105A4000002B41D007F11403184602F0B5FB03F018
:105A5000F3FF786BFFF747FFF863FA6BBB6B9A4273
:105A600018D20021002003F0B3FD7B6B5B69002B93
:105A70000AD04FF0500383F31188BFF36F8FBFF349
:105A80004F8FFB6100BFFEE702F00EFE02467B6B0C
:105A90005A6102E004F000F816E003F0FDFF3B68F5
:105AA0000093002300220021002003F079F97B6B92
:105AB00000225A613A4607F114031146184602F0D3
:105AC000B7FB0346002BC2D0FB6B002B03D1786BD6
:105AD000FFF709FFF863BB6B0093FB6B7A68B9684B
:105AE000786B00F098F8F862FB6A002B1BD0786B9B
